{
  "_format": "hh3-artifact-1",
  "contractName": "TokenFactory",
  "sourceName": "contracts/tokenFactory/Factory.sol",
  "abi": [
    {
      "anonymous": false,
      "inputs": [
        {
          "indexed": false,
          "internalType": "address",
          "name": "token",
          "type": "address"
        },
        {
          "indexed": false,
          "internalType": "string",
          "name": "name",
          "type": "string"
        },
        {
          "indexed": false,
          "internalType": "string",
          "name": "symbol",
          "type": "string"
        },
        {
          "indexed": false,
          "internalType": "uint256",
          "name": "totalSupply",
          "type": "uint256"
        },
        {
          "indexed": false,
          "internalType": "uint8",
          "name": "decimalPlaces",
          "type": "uint8"
        },
        {
          "indexed": false,
          "internalType": "uint8",
          "name": "transferTax",
          "type": "uint8"
        },
        {
          "indexed": false,
          "internalType": "address",
          "name": "owner",
          "type": "address"
        }
      ],
      "name": "FeeTokenCreated",
      "type": "event"
    },
    {
      "anonymous": false,
      "inputs": [
        {
          "indexed": false,
          "internalType": "address",
          "name": "token",
          "type": "address"
        },
        {
          "indexed": false,
          "internalType": "string",
          "name": "name",
          "type": "string"
        },
        {
          "indexed": false,
          "internalType": "string",
          "name": "symbol",
          "type": "string"
        },
        {
          "indexed": false,
          "internalType": "uint256",
          "name": "totalSupply",
          "type": "uint256"
        },
        {
          "indexed": false,
          "internalType": "uint8",
          "name": "decimalPlaces",
          "type": "uint8"
        },
        {
          "indexed": false,
          "internalType": "address",
          "name": "owner",
          "type": "address"
        }
      ],
      "name": "StandardTokenCreated",
      "type": "event"
    },
    {
      "inputs": [
        {
          "internalType": "string",
          "name": "name",
          "type": "string"
        },
        {
          "internalType": "string",
          "name": "symbol",
          "type": "string"
        },
        {
          "internalType": "uint256",
          "name": "totalSupply",
          "type": "uint256"
        },
        {
          "internalType": "uint8",
          "name": "decimalPlaces",
          "type": "uint8"
        },
        {
          "internalType": "uint8",
          "name": "transferTax",
          "type": "uint8"
        }
      ],
      "name": "createFeeToken",
      "outputs": [
        {
          "internalType": "address",
          "name": "token",
          "type": "address"
        }
      ],
      "stateMutability": "nonpayable",
      "type": "function"
    },
    {
      "inputs": [
        {
          "internalType": "string",
          "name": "name",
          "type": "string"
        },
        {
          "internalType": "string",
          "name": "symbol",
          "type": "string"
        },
        {
          "internalType": "uint256",
          "name": "totalSupply",
          "type": "uint256"
        },
        {
          "internalType": "uint8",
          "name": "decimalPlaces",
          "type": "uint8"
        }
      ],
      "name": "createStandardToken",
      "outputs": [
        {
          "internalType": "address",
          "name": "token",
          "type": "address"
        }
      ],
      "stateMutability": "nonpayable",
      "type": "function"
    }
  ],
  "bytecode": "0x6080604052348015600e575f5ffd5b506121ef8061001c5f395ff3fe608060405234801561000f575f5ffd5b5060043610610034575f3560e01c806303735ef61461003857806396811ac814610067575b5f5ffd5b61004b610046366004610257565b61007a565b6040516001600160a01b03909116815260200160405180910390f35b61004b6100753660046102e5565b610104565b5f85858585853360405161008d90610189565b61009c96959493929190610391565b604051809103905ff0801580156100b5573d5f5f3e3d5ffd5b5090507f4098e4f16d2313836a6713b9b73b5e6ede1aafc02b9f7c7948a2e322833efdee818787878787336040516100f397969594939291906103e9565b60405180910390a195945050505050565b5f848484843360405161011690610196565b610124959493929190610453565b604051809103905ff08015801561013d573d5f5f3e3d5ffd5b5090507f20f341620eef5a3ba1258281cc4afb1207191a0efacf9d4dbd9d7286efe710a8818686868633604051610179969594939291906104a1565b60405180910390a1949350505050565b610f858061050283390190565b610d338061148783390190565b634e487b7160e01b5f52604160045260245ffd5b5f82601f8301126101c6575f5ffd5b813567ffffffffffffffff8111156101e0576101e06101a3565b604051601f8201601f19908116603f0116810167ffffffffffffffff8111828210171561020f5761020f6101a3565b604052818152838201602001851015610226575f5ffd5b816020850160208301375f918101602001919091529392505050565b803560ff81168114610252575f5ffd5b919050565b5f5f5f5f5f60a0868803121561026b575f5ffd5b853567ffffffffffffffff811115610281575f5ffd5b61028d888289016101b7565b955050602086013567ffffffffffffffff8111156102a9575f5ffd5b6102b5888289016101b7565b945050604086013592506102cb60608701610242565b91506102d960808701610242565b90509295509295909350565b5f5f5f5f608085870312156102f8575f5ffd5b843567ffffffffffffffff81111561030e575f5ffd5b61031a878288016101b7565b945050602085013567ffffffffffffffff811115610336575f5ffd5b610342878288016101b7565b9350506040850135915061035860608601610242565b905092959194509250565b5f81518084528060208401602086015e5f602082860101526020601f19601f83011685010191505092915050565b60c081525f6103a360c0830189610363565b82810360208401526103b58189610363565b6040840197909752505060ff93841660608201529190921660808201526001600160a01b0390911660a09091015292915050565b6001600160a01b038816815260e0602082018190525f9061040c90830189610363565b828103604084015261041e8189610363565b6060840197909752505060ff93841660808201529190921660a08201526001600160a01b0390911660c0909101529392505050565b60a081525f61046560a0830188610363565b82810360208401526104778188610363565b6040840196909652505060ff9290921660608301526001600160a01b031660809091015292915050565b6001600160a01b038716815260c0602082018190525f906104c490830188610363565b82810360408401526104d68188610363565b6060840196909652505060ff9290921660808301526001600160a01b031660a090910152939250505056fe608060405234801561000f575f5ffd5b50604051610f85380380610f8583398101604081905261002e9161035b565b85858585848085856003610042838261048c565b50600461004f828261048c565b5050506001600160a01b03811661008057604051631e4fbdf760e01b81525f60048201526024015b60405180910390fd5b610089816100fa565b50610094818461014b565b506005805460ff928316600160a01b0260ff60a01b199091161781556001600160a01b039095165f908152600660205260409020805460ff1916600117905584549516600160a81b0260ff60a81b19909516949094179092555061056b95505050505050565b600580546001600160a01b038381166001600160a01b0319831681179093556040519116919082907f8be0079c531659141344cd1fd0a4f28419497f9722a3daafe3b4186f6b6457e0905f90a35050565b6001600160a01b0382166101745760405163ec442f0560e01b81525f6004820152602401610077565b61017f5f8383610183565b5050565b6001600160a01b0383166101ad578060025f8282546101a29190610546565b9091555061021d9050565b6001600160a01b0383165f90815260208190526040902054818110156101ff5760405163391434e360e21b81526001600160a01b03851660048201526024810182905260448101839052606401610077565b6001600160a01b0384165f9081526020819052604090209082900390555b6001600160a01b03821661023957600280548290039055610257565b6001600160a01b0382165f9081526020819052604090208054820190555b816001600160a01b0316836001600160a01b03167fddf252ad1be2c89b69c2b068fc378daa952ba7f163c4a11628f55a4df523b3ef8360405161029c91815260200190565b60405180910390a3505050565b634e487b7160e01b5f52604160045260245ffd5b5f82601f8301126102cc575f5ffd5b81516001600160401b038111156102e5576102e56102a9565b604051601f8201601f19908116603f011681016001600160401b0381118282101715610313576103136102a9565b60405281815283820160200185101561032a575f5ffd5b8160208501602083015e5f918101602001919091529392505050565b805160ff81168114610356575f5ffd5b919050565b5f5f5f5f5f5f60c08789031215610370575f5ffd5b86516001600160401b03811115610385575f5ffd5b61039189828a016102bd565b602089015190975090506001600160401b038111156103ae575f5ffd5b6103ba89828a016102bd565b955050604087015193506103d060608801610346565b92506103de60808801610346565b60a08801519092506001600160a01b03811681146103fa575f5ffd5b809150509295509295509295565b600181811c9082168061041c57607f821691505b60208210810361043a57634e487b7160e01b5f52602260045260245ffd5b50919050565b601f82111561048757805f5260205f20601f840160051c810160208510156104655750805b601f840160051c820191505b81811015610484575f8155600101610471565b50505b505050565b81516001600160401b038111156104a5576104a56102a9565b6104b9816104b38454610408565b84610440565b6020601f8211600181146104eb575f83156104d45750848201515b5f19600385901b1c1916600184901b178455610484565b5f84815260208120601f198516915b8281101561051a57878501518255602094850194600190920191016104fa565b508482101561053757868401515f19600387901b60f8161c191681555b50505050600190811b01905550565b8082018082111561056557634e487b7160e01b5f52601160045260245ffd5b92915050565b610a0d806105785f395ff3fe608060405234801561000f575f5ffd5b50600436106100ef575f3560e01c8063715018a611610093578063c2ed286b11610063578063c2ed286b146101f4578063d0bb0b8a14610207578063dd62ed3e14610219578063f2fde38b14610251575f5ffd5b8063715018a6146101b65780638da5cb5b146101be57806395d89b41146101d9578063a9059cbb146101e1575f5ffd5b806318160ddd116100ce57806318160ddd1461014957806323b872dd1461015b578063313ce5671461016e57806370a082311461018e575f5ffd5b8062d21167146100f357806306fdde0314610108578063095ea7b314610126575b5f5ffd5b6101066101013660046107d3565b610264565b005b61011061028c565b60405161011d91906107fa565b60405180910390f35b61013961013436600461084a565b61031c565b604051901515815260200161011d565b6002545b60405190815260200161011d565b610139610169366004610872565b610335565b600554600160a01b900460ff165b60405160ff909116815260200161011d565b61014d61019c3660046108ac565b6001600160a01b03165f9081526020819052604090205490565b610106610358565b6005546040516001600160a01b03909116815260200161011d565b61011061036b565b6101396101ef36600461084a565b61037a565b6101066102023660046108c5565b6103fe565b600554600160a81b900460ff1661017c565b61014d6102273660046108fe565b6001600160a01b039182165f90815260016020908152604080832093909416825291909152205490565b61010661025f3660046108ac565b610430565b61026c610472565b6005805460ff909216600160a81b0260ff60a81b19909216919091179055565b60606003805461029b9061092f565b80601f01602080910402602001604051908101604052809291908181526020018280546102c79061092f565b80156103125780601f106102e957610100808354040283529160200191610312565b820191905f5260205f20905b8154815290600101906020018083116102f557829003601f168201915b5050505050905090565b5f3361032981858561049f565b60019150505b92915050565b5f336103428582856104b1565b61034d85858561052d565b506001949350505050565b610360610472565b6103695f61058a565b565b60606004805461029b9061092f565b335f9081526006602052604081205460ff166103ea576005545f906064906103ac90600160a81b900460ff168561097b565b6103b69190610992565b90506103c281846109b1565b92506103e0336103da6005546001600160a01b031690565b8361052d565b600191505061032f565b6103f533848461052d565b50600192915050565b610406610472565b6001600160a01b03919091165f908152600660205260409020805460ff1916911515919091179055565b610438610472565b6001600160a01b03811661046657604051631e4fbdf760e01b81525f60048201526024015b60405180910390fd5b61046f8161058a565b50565b6005546001600160a01b031633146103695760405163118cdaa760e01b815233600482015260240161045d565b6104ac83838360016105db565b505050565b6001600160a01b038381165f908152600160209081526040808320938616835292905220545f19811015610527578181101561051957604051637dc7a0d960e11b81526001600160a01b0384166004820152602481018290526044810183905260640161045d565b61052784848484035f6105db565b50505050565b6001600160a01b03831661055657604051634b637e8f60e11b81525f600482015260240161045d565b6001600160a01b03821661057f5760405163ec442f0560e01b81525f600482015260240161045d565b6104ac8383836106ad565b600580546001600160a01b038381166001600160a01b0319831681179093556040519116919082907f8be0079c531659141344cd1fd0a4f28419497f9722a3daafe3b4186f6b6457e0905f90a35050565b6001600160a01b0384166106045760405163e602df0560e01b81525f600482015260240161045d565b6001600160a01b03831661062d57604051634a1406b160e11b81525f600482015260240161045d565b6001600160a01b038085165f908152600160209081526040808320938716835292905220829055801561052757826001600160a01b0316846001600160a01b03167f8c5be1e5ebec7d5bd14f71427d1e84f3dd0314c0f7b2291e5b200ac8c7c3b9258460405161069f91815260200190565b60405180910390a350505050565b6001600160a01b0383166106d7578060025f8282546106cc91906109c4565b909155506107479050565b6001600160a01b0383165f90815260208190526040902054818110156107295760405163391434e360e21b81526001600160a01b0385166004820152602481018290526044810183905260640161045d565b6001600160a01b0384165f9081526020819052604090209082900390555b6001600160a01b03821661076357600280548290039055610781565b6001600160a01b0382165f9081526020819052604090208054820190555b816001600160a01b0316836001600160a01b03167fddf252ad1be2c89b69c2b068fc378daa952ba7f163c4a11628f55a4df523b3ef836040516107c691815260200190565b60405180910390a3505050565b5f602082840312156107e3575f5ffd5b813560ff811681146107f3575f5ffd5b9392505050565b602081525f82518060208401528060208501604085015e5f604082850101526040601f19601f83011684010191505092915050565b80356001600160a01b0381168114610845575f5ffd5b919050565b5f5f6040838503121561085b575f5ffd5b6108648361082f565b946020939093013593505050565b5f5f5f60608486031215610884575f5ffd5b61088d8461082f565b925061089b6020850161082f565b929592945050506040919091013590565b5f602082840312156108bc575f5ffd5b6107f38261082f565b5f5f604083850312156108d6575f5ffd5b6108df8361082f565b9150602083013580151581146108f3575f5ffd5b809150509250929050565b5f5f6040838503121561090f575f5ffd5b6109188361082f565b91506109266020840161082f565b90509250929050565b600181811c9082168061094357607f821691505b60208210810361096157634e487b7160e01b5f52602260045260245ffd5b50919050565b634e487b7160e01b5f52601160045260245ffd5b808202811582820484141761032f5761032f610967565b5f826109ac57634e487b7160e01b5f52601260045260245ffd5b500490565b8181038181111561032f5761032f610967565b8082018082111561032f5761032f61096756fea2646970667358221220815398b1ac785e01a56f842a5d3f1dd0dd23193f9b66f356f33ab3ef6444f39164736f6c634300081c0033608060405234801561000f575f5ffd5b50604051610d33380380610d3383398101604081905261002e91610303565b808585600361003d838261042c565b50600461004a828261042c565b5050506001600160a01b03811661007b57604051631e4fbdf760e01b81525f60048201526024015b60405180910390fd5b610084816100b7565b5061008f8184610108565b506005805460ff909216600160a01b0260ff60a01b199092169190911790555061050b915050565b600580546001600160a01b038381166001600160a01b0319831681179093556040519116919082907f8be0079c531659141344cd1fd0a4f28419497f9722a3daafe3b4186f6b6457e0905f90a35050565b6001600160a01b0382166101315760405163ec442f0560e01b81525f6004820152602401610072565b61013c5f8383610140565b5050565b6001600160a01b03831661016a578060025f82825461015f91906104e6565b909155506101da9050565b6001600160a01b0383165f90815260208190526040902054818110156101bc5760405163391434e360e21b81526001600160a01b03851660048201526024810182905260448101839052606401610072565b6001600160a01b0384165f9081526020819052604090209082900390555b6001600160a01b0382166101f657600280548290039055610214565b6001600160a01b0382165f9081526020819052604090208054820190555b816001600160a01b0316836001600160a01b03167fddf252ad1be2c89b69c2b068fc378daa952ba7f163c4a11628f55a4df523b3ef8360405161025991815260200190565b60405180910390a3505050565b634e487b7160e01b5f52604160045260245ffd5b5f82601f830112610289575f5ffd5b81516001600160401b038111156102a2576102a2610266565b604051601f8201601f19908116603f011681016001600160401b03811182821017156102d0576102d0610266565b6040528181528382016020018510156102e7575f5ffd5b8160208501602083015e5f918101602001919091529392505050565b5f5f5f5f5f60a08688031215610317575f5ffd5b85516001600160401b0381111561032c575f5ffd5b6103388882890161027a565b602088015190965090506001600160401b03811115610355575f5ffd5b6103618882890161027a565b94505060408601519250606086015160ff8116811461037e575f5ffd5b60808701519092506001600160a01b038116811461039a575f5ffd5b809150509295509295909350565b600181811c908216806103bc57607f821691505b6020821081036103da57634e487b7160e01b5f52602260045260245ffd5b50919050565b601f82111561042757805f5260205f20601f840160051c810160208510156104055750805b601f840160051c820191505b81811015610424575f8155600101610411565b50505b505050565b81516001600160401b0381111561044557610445610266565b6104598161045384546103a8565b846103e0565b6020601f82116001811461048b575f83156104745750848201515b5f19600385901b1c1916600184901b178455610424565b5f84815260208120601f198516915b828110156104ba578785015182556020948501946001909201910161049a565b50848210156104d757868401515f19600387901b60f8161c191681555b50505050600190811b01905550565b8082018082111561050557634e487b7160e01b5f52601160045260245ffd5b92915050565b61081b806105185f395ff3fe608060405234801561000f575f5ffd5b50600436106100b1575f3560e01c8063715018a61161006e578063715018a6146101625780638da5cb5b1461016c57806395d89b4114610187578063a9059cbb1461018f578063dd62ed3e146101a2578063f2fde38b146101da575f5ffd5b806306fdde03146100b5578063095ea7b3146100d357806318160ddd146100f657806323b872dd14610108578063313ce5671461011b57806370a082311461013a575b5f5ffd5b6100bd6101ed565b6040516100ca919061068b565b60405180910390f35b6100e66100e13660046106db565b61027d565b60405190151581526020016100ca565b6002545b6040519081526020016100ca565b6100e6610116366004610703565b610296565b600554600160a01b900460ff1660405160ff90911681526020016100ca565b6100fa61014836600461073d565b6001600160a01b03165f9081526020819052604090205490565b61016a6102b9565b005b6005546040516001600160a01b0390911681526020016100ca565b6100bd6102cc565b6100e661019d3660046106db565b6102db565b6100fa6101b036600461075d565b6001600160a01b039182165f90815260016020908152604080832093909416825291909152205490565b61016a6101e836600461073d565b6102e8565b6060600380546101fc9061078e565b80601f01602080910402602001604051908101604052809291908181526020018280546102289061078e565b80156102735780601f1061024a57610100808354040283529160200191610273565b820191905f5260205f20905b81548152906001019060200180831161025657829003601f168201915b5050505050905090565b5f3361028a81858561032a565b60019150505b92915050565b5f336102a385828561033c565b6102ae8585856103b8565b506001949350505050565b6102c1610415565b6102ca5f610442565b565b6060600480546101fc9061078e565b5f3361028a8185856103b8565b6102f0610415565b6001600160a01b03811661031e57604051631e4fbdf760e01b81525f60048201526024015b60405180910390fd5b61032781610442565b50565b6103378383836001610493565b505050565b6001600160a01b038381165f908152600160209081526040808320938616835292905220545f198110156103b257818110156103a457604051637dc7a0d960e11b81526001600160a01b03841660048201526024810182905260448101839052606401610315565b6103b284848484035f610493565b50505050565b6001600160a01b0383166103e157604051634b637e8f60e11b81525f6004820152602401610315565b6001600160a01b03821661040a5760405163ec442f0560e01b81525f6004820152602401610315565b610337838383610565565b6005546001600160a01b031633146102ca5760405163118cdaa760e01b8152336004820152602401610315565b600580546001600160a01b038381166001600160a01b0319831681179093556040519116919082907f8be0079c531659141344cd1fd0a4f28419497f9722a3daafe3b4186f6b6457e0905f90a35050565b6001600160a01b0384166104bc5760405163e602df0560e01b81525f6004820152602401610315565b6001600160a01b0383166104e557604051634a1406b160e11b81525f6004820152602401610315565b6001600160a01b038085165f90815260016020908152604080832093871683529290522082905580156103b257826001600160a01b0316846001600160a01b03167f8c5be1e5ebec7d5bd14f71427d1e84f3dd0314c0f7b2291e5b200ac8c7c3b9258460405161055791815260200190565b60405180910390a350505050565b6001600160a01b03831661058f578060025f82825461058491906107c6565b909155506105ff9050565b6001600160a01b0383165f90815260208190526040902054818110156105e15760405163391434e360e21b81526001600160a01b03851660048201526024810182905260448101839052606401610315565b6001600160a01b0384165f9081526020819052604090209082900390555b6001600160a01b03821661061b57600280548290039055610639565b6001600160a01b0382165f9081526020819052604090208054820190555b816001600160a01b0316836001600160a01b03167fddf252ad1be2c89b69c2b068fc378daa952ba7f163c4a11628f55a4df523b3ef8360405161067e91815260200190565b60405180910390a3505050565b602081525f82518060208401528060208501604085015e5f604082850101526040601f19601f83011684010191505092915050565b80356001600160a01b03811681146106d6575f5ffd5b919050565b5f5f604083850312156106ec575f5ffd5b6106f5836106c0565b946020939093013593505050565b5f5f5f60608486031215610715575f5ffd5b61071e846106c0565b925061072c602085016106c0565b929592945050506040919091013590565b5f6020828403121561074d575f5ffd5b610756826106c0565b9392505050565b5f5f6040838503121561076e575f5ffd5b610777836106c0565b9150610785602084016106c0565b90509250929050565b600181811c908216806107a257607f821691505b6020821081036107c057634e487b7160e01b5f52602260045260245ffd5b50919050565b8082018082111561029057634e487b7160e01b5f52601160045260245ffdfea2646970667358221220e3a9ec5e133dd21806182d1566d898aad1b9264dc412ebf4f7cc372e301ad3e464736f6c634300081c0033a264697066735822122033585fb5a11bb00d33e8ec11df34f139c10b41871b123cb652e63fa1acf57be664736f6c634300081c0033",
  "linkReferences": {},
  "deployedLinkReferences": {},
  "immutableReferences": {},
  "inputSourceName": "project/contracts/tokenFactory/Factory.sol",
  "buildInfoId": "solc-0_8_28-740049ef5f179a4995effc442ee39154e7432d15"
}